{
  "contractName": "CaseRepository",
  "abi": [
    {
      "anonymous": false,
      "inputs": [
        {
          "indexed": false,
          "internalType": "address",
          "name": "caseOfficer",
          "type": "address"
        }
      ],
      "name": "CaseAssigned",
      "type": "event"
    },
    {
      "anonymous": false,
      "inputs": [
        {
          "indexed": false,
          "internalType": "address",
          "name": "caseCreator",
          "type": "address"
        },
        {
          "indexed": false,
          "internalType": "uint256",
          "name": "caseId",
          "type": "uint256"
        }
      ],
      "name": "CaseCreated",
      "type": "event"
    },
    {
      "inputs": [],
      "name": "createCaseFile",
      "outputs": [
        {
          "internalType": "uint256",
          "name": "",
          "type": "uint256"
        },
        {
          "internalType": "address",
          "name": "",
          "type": "address"
        },
        {
          "internalType": "enum CaseRepository.MgmtPhase",
          "name": "",
          "type": "uint8"
        }
      ],
      "stateMutability": "nonpayable",
      "type": "function"
    },
    {
      "inputs": [
        {
          "internalType": "uint256",
          "name": "_caseId",
          "type": "uint256"
        },
        {
          "internalType": "address",
          "name": "_officerAddress",
          "type": "address"
        }
      ],
      "name": "assignCase",
      "outputs": [],
      "stateMutability": "nonpayable",
      "type": "function"
    }
  ],
  "bytecode": "0x608060405234801561001057600080fd5b506104f9806100206000396000f3fe608060405234801561001057600080fd5b50600436106100365760003560e01c80633790275d1461003b5780639b31f34b1461005b575b600080fd5b610043610077565b60405161005293929190610342565b60405180910390f35b610075600480360381019061007091906102b0565b610230565b005b60008060008060405180606001604052806001600081548092919061009b906103da565b9190505581526020013373ffffffffffffffffffffffffffffffffffffffff168152602001600060038111156100fa577f4e487b7100000000000000000000000000000000000000000000000000000000600052602160045260246000fd5b815250905060008190806001815401808255809150506001900390600052602060002090600202016000909190919091506000820151816000015560208201518160010160006101000a81548173ffffffffffffffffffffffffffffffffffffffff021916908373ffffffffffffffffffffffffffffffffffffffff16021790555060408201518160010160146101000a81548160ff021916908360038111156101cd577f4e487b7100000000000000000000000000000000000000000000000000000000600052602160045260246000fd5b021790555050507f3f78e863cedf5e91e5c35b6fabc10c966293c2bc93371b7a8d3761bf7e17028b8160200151826000015160405161020d929190610319565b60405180910390a180600001518160200151826040015193509350935050909192565b806002600084815260200190815260200160002060006101000a81548173ffffffffffffffffffffffffffffffffffffffff021916908373ffffffffffffffffffffffffffffffffffffffff1602179055505050565b60008135905061029581610495565b92915050565b6000813590506102aa816104ac565b92915050565b600080604083850312156102c357600080fd5b60006102d18582860161029b565b92505060206102e285828601610286565b9150509250929050565b6102f581610379565b82525050565b610304816103c8565b82525050565b610313816103be565b82525050565b600060408201905061032e60008301856102ec565b61033b602083018461030a565b9392505050565b6000606082019050610357600083018661030a565b61036460208301856102ec565b61037160408301846102fb565b949350505050565b60006103848261039e565b9050919050565b600081905061039982610481565b919050565b600073ffffffffffffffffffffffffffffffffffffffff82169050919050565b6000819050919050565b60006103d38261038b565b9050919050565b60006103e5826103be565b91507fffffffffffffffffffffffffffffffffffffffffffffffffffffffffffffffff82141561041857610417610423565b5b600182019050919050565b7f4e487b7100000000000000000000000000000000000000000000000000000000600052601160045260246000fd5b7f4e487b7100000000000000000000000000000000000000000000000000000000600052602160045260246000fd5b6004811061049257610491610452565b5b50565b61049e81610379565b81146104a957600080fd5b50565b6104b5816103be565b81146104c057600080fd5b5056fea26469706673582212209a41130733a0c089b63e6457da08cfe73a91ffc86336e0d8df9f3f43d4bad73964736f6c63430008040033",
  "immutableReferences": {},
  "source": "// SPDX-License-Identifier: MIT\npragma solidity >=0.8.4 <0.9;\n\ncontract CaseRepository {\n    // Case array\n    Case[] cases;\n\n    // State variable used to track the number of \n    // created cases and form a unique Id for each case.\n    uint caseCount;\n    \n    // Case struct holding all required case info\n    struct Case {\n        uint caseId;\n        address caseCreator;\n        MgmtPhase phase;\n    }\n    \n    // Declare case creation event to enable UI awareness\n    \n    event CaseCreated(address caseCreator, uint caseId);\n    \n    // Create the case for incident report, audit, etc..\n    // TODO: Implement timedatestamp.\n    \n    function createCaseFile() public returns (uint, address, MgmtPhase) {\n        \n        Case memory caseFile =  Case({caseId:caseCount++, caseCreator:msg.sender, phase:MgmtPhase.Created});\n        \n        cases.push(caseFile);\n        \n        emit CaseCreated(caseFile.caseCreator, caseFile.caseId);\n\n        return (caseFile.caseId, caseFile.caseCreator, caseFile.phase);\n    }\n    \n    // Declare event for case assignment to an officer, investigator,\n    // employee, etc. The case can be reassigned if necessary; while\n    // the transaction logs will show the assignment history.\n    // TODO: Implement timedatestamp.\n    \n    event CaseAssigned(address caseOfficer);\n    \n    // When an officer, case manager, employee, etc. is\n    // assigned to the case, the case id  is mapped to \n    // their ethereum address.\n    \n    mapping (uint => address) caseOfficer;\n    \n    function assignCase(uint _caseId, address _officerAddress) public {\n        \n        caseOfficer[_caseId] = _officerAddress;\n    }\n\n    enum MgmtPhase {\n        Created,\n        InvestigationStarted,\n        InvestigationEnded,\n        Closed\n    }\n\n   // constructor(){}\n}\n",
  "sourcePath": "/home/uzyrpr/eth_projects/svelte-case/contracts/CaseRepository.sol",
  "compiler": {
    "name": "solc",
    "version": "0.8.4+commit.c7e474f2.Emscripten.clang"
  },
  "schemaVersion": "3.4.0",
  "updatedAt": "2021-06-04T23:34:14.193Z",
  "networkType": "ethereum",
  "devdoc": {
    "kind": "dev",
    "methods": {},
    "version": 1
  },
  "userdoc": {
    "kind": "user",
    "methods": {},
    "version": 1
  }
}